{
  "contractName": "Nfast",
  "abi": [
    {
      "inputs": [
        {
          "internalType": "string",
          "name": "name_",
          "type": "string"
        },
        {
          "internalType": "string",
          "name": "symbol_",
          "type": "string"
        }
      ],
      "stateMutability": "nonpayable",
      "type": "constructor"
    },
    {
      "anonymous": false,
      "inputs": [
        {
          "indexed": true,
          "internalType": "address",
          "name": "owner",
          "type": "address"
        },
        {
          "indexed": true,
          "internalType": "address",
          "name": "approved",
          "type": "address"
        },
        {
          "indexed": true,
          "internalType": "uint256",
          "name": "tokenId",
          "type": "uint256"
        }
      ],
      "name": "Approval",
      "type": "event"
    },
    {
      "anonymous": false,
      "inputs": [
        {
          "indexed": true,
          "internalType": "address",
          "name": "owner",
          "type": "address"
        },
        {
          "indexed": true,
          "internalType": "address",
          "name": "operator",
          "type": "address"
        },
        {
          "indexed": false,
          "internalType": "bool",
          "name": "approved",
          "type": "bool"
        }
      ],
      "name": "ApprovalForAll",
      "type": "event"
    },
    {
      "anonymous": false,
      "inputs": [
        {
          "indexed": true,
          "internalType": "address",
          "name": "_store",
          "type": "address"
        },
        {
          "indexed": false,
          "internalType": "uint256[]",
          "name": "tokenIds",
          "type": "uint256[]"
        }
      ],
      "name": "CreateAll",
      "type": "event"
    },
    {
      "anonymous": false,
      "inputs": [
        {
          "indexed": true,
          "internalType": "address",
          "name": "from",
          "type": "address"
        },
        {
          "indexed": true,
          "internalType": "address",
          "name": "to",
          "type": "address"
        },
        {
          "indexed": true,
          "internalType": "uint256",
          "name": "tokenId",
          "type": "uint256"
        }
      ],
      "name": "Transfer",
      "type": "event"
    },
    {
      "inputs": [
        {
          "internalType": "address",
          "name": "to",
          "type": "address"
        },
        {
          "internalType": "uint256",
          "name": "tokenId",
          "type": "uint256"
        }
      ],
      "name": "approve",
      "outputs": [],
      "stateMutability": "nonpayable",
      "type": "function"
    },
    {
      "inputs": [
        {
          "internalType": "address",
          "name": "owner",
          "type": "address"
        }
      ],
      "name": "balanceOf",
      "outputs": [
        {
          "internalType": "uint256",
          "name": "",
          "type": "uint256"
        }
      ],
      "stateMutability": "view",
      "type": "function",
      "constant": true
    },
    {
      "inputs": [
        {
          "internalType": "uint256",
          "name": "tokenId",
          "type": "uint256"
        }
      ],
      "name": "getApproved",
      "outputs": [
        {
          "internalType": "address",
          "name": "",
          "type": "address"
        }
      ],
      "stateMutability": "view",
      "type": "function",
      "constant": true
    },
    {
      "inputs": [
        {
          "internalType": "address",
          "name": "owner",
          "type": "address"
        },
        {
          "internalType": "address",
          "name": "operator",
          "type": "address"
        }
      ],
      "name": "isApprovedForAll",
      "outputs": [
        {
          "internalType": "bool",
          "name": "",
          "type": "bool"
        }
      ],
      "stateMutability": "view",
      "type": "function",
      "constant": true
    },
    {
      "inputs": [],
      "name": "name",
      "outputs": [
        {
          "internalType": "string",
          "name": "",
          "type": "string"
        }
      ],
      "stateMutability": "view",
      "type": "function",
      "constant": true
    },
    {
      "inputs": [
        {
          "internalType": "uint256",
          "name": "tokenId",
          "type": "uint256"
        }
      ],
      "name": "ownerOf",
      "outputs": [
        {
          "internalType": "address",
          "name": "",
          "type": "address"
        }
      ],
      "stateMutability": "view",
      "type": "function",
      "constant": true
    },
    {
      "inputs": [
        {
          "internalType": "address",
          "name": "from",
          "type": "address"
        },
        {
          "internalType": "address",
          "name": "to",
          "type": "address"
        },
        {
          "internalType": "uint256",
          "name": "tokenId",
          "type": "uint256"
        }
      ],
      "name": "safeTransferFrom",
      "outputs": [],
      "stateMutability": "nonpayable",
      "type": "function"
    },
    {
      "inputs": [
        {
          "internalType": "address",
          "name": "from",
          "type": "address"
        },
        {
          "internalType": "address",
          "name": "to",
          "type": "address"
        },
        {
          "internalType": "uint256",
          "name": "tokenId",
          "type": "uint256"
        },
        {
          "internalType": "bytes",
          "name": "_data",
          "type": "bytes"
        }
      ],
      "name": "safeTransferFrom",
      "outputs": [],
      "stateMutability": "nonpayable",
      "type": "function"
    },
    {
      "inputs": [
        {
          "internalType": "address",
          "name": "operator",
          "type": "address"
        },
        {
          "internalType": "bool",
          "name": "approved",
          "type": "bool"
        }
      ],
      "name": "setApprovalForAll",
      "outputs": [],
      "stateMutability": "nonpayable",
      "type": "function"
    },
    {
      "inputs": [
        {
          "internalType": "bytes4",
          "name": "interfaceId",
          "type": "bytes4"
        }
      ],
      "name": "supportsInterface",
      "outputs": [
        {
          "internalType": "bool",
          "name": "",
          "type": "bool"
        }
      ],
      "stateMutability": "view",
      "type": "function",
      "constant": true
    },
    {
      "inputs": [],
      "name": "symbol",
      "outputs": [
        {
          "internalType": "string",
          "name": "",
          "type": "string"
        }
      ],
      "stateMutability": "view",
      "type": "function",
      "constant": true
    },
    {
      "inputs": [
        {
          "internalType": "uint256",
          "name": "tokenId",
          "type": "uint256"
        }
      ],
      "name": "tokenURI",
      "outputs": [
        {
          "internalType": "string",
          "name": "",
          "type": "string"
        }
      ],
      "stateMutability": "view",
      "type": "function",
      "constant": true
    },
    {
      "inputs": [
        {
          "internalType": "address",
          "name": "from",
          "type": "address"
        },
        {
          "internalType": "address",
          "name": "to",
          "type": "address"
        },
        {
          "internalType": "uint256",
          "name": "tokenId",
          "type": "uint256"
        }
      ],
      "name": "transferFrom",
      "outputs": [],
      "stateMutability": "nonpayable",
      "type": "function"
    },
    {
      "inputs": [],
      "name": "current",
      "outputs": [
        {
          "internalType": "uint256",
          "name": "",
          "type": "uint256"
        }
      ],
      "stateMutability": "view",
      "type": "function",
      "constant": true
    },
    {
      "inputs": [
        {
          "internalType": "address",
          "name": "_to",
          "type": "address"
        },
        {
          "internalType": "string",
          "name": "_tokenURI",
          "type": "string"
        },
        {
          "internalType": "address",
          "name": "_storeAddress",
          "type": "address"
        },
        {
          "internalType": "uint256",
          "name": "_date",
          "type": "uint256"
        },
        {
          "internalType": "bool",
          "name": "_mealType",
          "type": "bool"
        },
        {
          "internalType": "uint256",
          "name": "_startTime",
          "type": "uint256"
        },
        {
          "internalType": "uint256",
          "name": "_endTime",
          "type": "uint256"
        },
        {
          "internalType": "uint256",
          "name": "_price",
          "type": "uint256"
        },
        {
          "internalType": "uint256",
          "name": "_charge",
          "type": "uint256"
        }
      ],
      "name": "create",
      "outputs": [
        {
          "internalType": "uint256",
          "name": "",
          "type": "uint256"
        }
      ],
      "stateMutability": "payable",
      "type": "function",
      "payable": true
    },
    {
      "inputs": [
        {
          "internalType": "uint256",
          "name": "_numTokens",
          "type": "uint256"
        },
        {
          "internalType": "address",
          "name": "_to",
          "type": "address"
        },
        {
          "internalType": "string",
          "name": "_tokenURI",
          "type": "string"
        },
        {
          "internalType": "address",
          "name": "_storeAddress",
          "type": "address"
        },
        {
          "internalType": "uint256",
          "name": "_date",
          "type": "uint256"
        },
        {
          "internalType": "bool",
          "name": "_mealType",
          "type": "bool"
        },
        {
          "internalType": "uint256",
          "name": "_startTime",
          "type": "uint256"
        },
        {
          "internalType": "uint256",
          "name": "_endTime",
          "type": "uint256"
        },
        {
          "internalType": "uint256",
          "name": "_price",
          "type": "uint256"
        },
        {
          "internalType": "uint256",
          "name": "_charge",
          "type": "uint256"
        }
      ],
      "name": "createAll",
      "outputs": [
        {
          "internalType": "uint256[]",
          "name": "",
          "type": "uint256[]"
        }
      ],
      "stateMutability": "payable",
      "type": "function",
      "payable": true
    },
    {
      "inputs": [
        {
          "internalType": "uint256",
          "name": "_tokenId",
          "type": "uint256"
        }
      ],
      "name": "setIsUse",
      "outputs": [],
      "stateMutability": "nonpayable",
      "type": "function"
    },
    {
      "inputs": [
        {
          "internalType": "uint256",
          "name": "_tokenId",
          "type": "uint256"
        }
      ],
      "name": "getTokenURI",
      "outputs": [
        {
          "internalType": "string",
          "name": "",
          "type": "string"
        }
      ],
      "stateMutability": "view",
      "type": "function",
      "constant": true
    },
    {
      "inputs": [
        {
          "internalType": "uint256",
          "name": "_tokenId",
          "type": "uint256"
        }
      ],
      "name": "getIsUse",
      "outputs": [
        {
          "internalType": "bool",
          "name": "",
          "type": "bool"
        }
      ],
      "stateMutability": "view",
      "type": "function",
      "constant": true
    },
    {
      "inputs": [
        {
          "internalType": "uint256",
          "name": "_tokenId",
          "type": "uint256"
        }
      ],
      "name": "getStoreAddress",
      "outputs": [
        {
          "internalType": "address",
          "name": "",
          "type": "address"
        }
      ],
      "stateMutability": "view",
      "type": "function",
      "constant": true
    },
    {
      "inputs": [
        {
          "internalType": "uint256",
          "name": "_tokenId",
          "type": "uint256"
        }
      ],
      "name": "getDate",
      "outputs": [
        {
          "internalType": "uint256",
          "name": "",
          "type": "uint256"
        }
      ],
      "stateMutability": "view",
      "type": "function",
      "constant": true
    },
    {
      "inputs": [
        {
          "internalType": "uint256",
          "name": "_tokenId",
          "type": "uint256"
        }
      ],
      "name": "getStartTime",
      "outputs": [
        {
          "internalType": "uint256",
          "name": "",
          "type": "uint256"
        }
      ],
      "stateMutability": "view",
      "type": "function",
      "constant": true
    },
    {
      "inputs": [
        {
          "internalType": "uint256",
          "name": "_tokenId",
          "type": "uint256"
        }
      ],
      "name": "getEndTime",
      "outputs": [
        {
          "internalType": "uint256",
          "name": "",
          "type": "uint256"
        }
      ],
      "stateMutability": "view",
      "type": "function",
      "constant": true
    },
    {
      "inputs": [
        {
          "internalType": "uint256",
          "name": "_tokenId",
          "type": "uint256"
        }
      ],
      "name": "getMealType",
      "outputs": [
        {
          "internalType": "bool",
          "name": "",
          "type": "bool"
        }
      ],
      "stateMutability": "view",
      "type": "function",
      "constant": true
    },
    {
      "inputs": [
        {
          "internalType": "uint256",
          "name": "_tokenId",
          "type": "uint256"
        }
      ],
      "name": "getPrice",
      "outputs": [
        {
          "internalType": "uint256",
          "name": "",
          "type": "uint256"
        }
      ],
      "stateMutability": "view",
      "type": "function",
      "constant": true
    },
    {
      "inputs": [
        {
          "internalType": "uint256",
          "name": "_tokenId",
          "type": "uint256"
        }
      ],
      "name": "getCharge",
      "outputs": [
        {
          "internalType": "uint256",
          "name": "",
          "type": "uint256"
        }
      ],
      "stateMutability": "view",
      "type": "function",
      "constant": true
    }
  ],
  "bytecode": "0x60806040523480156200001157600080fd5b5060405162003204380380620032048339818101604052810190620000379190620001fa565b818181600090816200004a9190620004ca565b5080600190816200005c9190620004ca565b5050505050620005b1565b6000604051905090565b600080fd5b600080fd5b600080fd5b600080fd5b6000601f19601f8301169050919050565b7f4e487b7100000000000000000000000000000000000000000000000000000000600052604160045260246000fd5b620000d08262000085565b810181811067ffffffffffffffff82111715620000f257620000f162000096565b5b80604052505050565b60006200010762000067565b9050620001158282620000c5565b919050565b600067ffffffffffffffff82111562000138576200013762000096565b5b620001438262000085565b9050602081019050919050565b60005b838110156200017057808201518184015260208101905062000153565b60008484015250505050565b6000620001936200018d846200011a565b620000fb565b905082815260208101848484011115620001b257620001b162000080565b5b620001bf84828562000150565b509392505050565b600082601f830112620001df57620001de6200007b565b5b8151620001f18482602086016200017c565b91505092915050565b6000806040838503121562000214576200021362000071565b5b600083015167ffffffffffffffff81111562000235576200023462000076565b5b6200024385828601620001c7565b925050602083015167ffffffffffffffff81111562000267576200026662000076565b5b6200027585828601620001c7565b9150509250929050565b600081519050919050565b7f4e487b7100000000000000000000000000000000000000000000000000000000600052602260045260246000fd5b60006002820490506001821680620002d257607f821691505b602082108103620002e857620002e76200028a565b5b50919050565b60008190508160005260206000209050919050565b60006020601f8301049050919050565b600082821b905092915050565b600060088302620003527fffffffffffffffffffffffffffffffffffffffffffffffffffffffffffffffff8262000313565b6200035e868362000313565b95508019841693508086168417925050509392505050565b6000819050919050565b6000819050919050565b6000620003ab620003a56200039f8462000376565b62000380565b62000376565b9050919050565b6000819050919050565b620003c7836200038a565b620003df620003d682620003b2565b84845462000320565b825550505050565b600090565b620003f6620003e7565b62000403818484620003bc565b505050565b5b818110156200042b576200041f600082620003ec565b60018101905062000409565b5050565b601f8211156200047a576200044481620002ee565b6200044f8462000303565b810160208510156200045f578190505b620004776200046e8562000303565b83018262000408565b50505b505050565b600082821c905092915050565b60006200049f600019846008026200047f565b1980831691505092915050565b6000620004ba83836200048c565b9150826002028217905092915050565b620004d5826200027f565b67ffffffffffffffff811115620004f157620004f062000096565b5b620004fd8254620002b9565b6200050a8282856200042f565b600060209050601f8311600181146200054257600084156200052d578287015190505b620005398582620004ac565b865550620005a9565b601f1984166200055286620002ee565b60005b828110156200057c5784890151825560018201915060208501945060208101905062000555565b868310156200059c578489015162000598601f8916826200048c565b8355505b6001600288020188555050505b505050505050565b612c4380620005c16000396000f3fe6080604052600436106101815760003560e01c806370a08231116100d1578063b88d4fde1161008a578063d260c71011610064578063d260c71014610609578063e485260814610639578063e757223014610676578063e985e9c5146106b357610181565b8063b88d4fde14610566578063bc2be1be1461058f578063c87b56dd146105cc57610181565b806370a08231146104305780639067b6771461046d57806395d89b41146104aa5780639fa6a6e3146104d5578063a22cb46514610500578063b82edd5c1461052957610181565b8063288fa5bf1161013e5780633f36aac9116101185780633f36aac91461036457806342842e0e146103a15780636352211e146103ca5780636d1ce87b1461040757610181565b8063288fa5bf146102ad5780632b57298b146102ea5780633bb3a24d1461032757610181565b806301ffc9a71461018657806306fdde03146101c3578063081812fc146101ee578063095ea7b31461022b57806310aeb8911461025457806323b872dd14610284575b600080fd5b34801561019257600080fd5b506101ad60048036038101906101a89190611b09565b6106f0565b6040516101ba9190611b51565b60405180910390f35b3480156101cf57600080fd5b506101d86107d2565b6040516101e59190611bfc565b60405180910390f35b3480156101fa57600080fd5b5061021560048036038101906102109190611c54565b610864565b6040516102229190611cc2565b60405180910390f35b34801561023757600080fd5b50610252600480360381019061024d9190611d09565b6108a1565b005b61026e60048036038101906102699190611dda565b610992565b60405161027b9190611f98565b60405180910390f35b34801561029057600080fd5b506102ab60048036038101906102a69190611fba565b610b18565b005b3480156102b957600080fd5b506102d460048036038101906102cf9190611c54565b610ff9565b6040516102e19190611cc2565b60405180910390f35b3480156102f657600080fd5b50610311600480360381019061030c9190611c54565b611036565b60405161031e919061201c565b60405180910390f35b34801561033357600080fd5b5061034e60048036038101906103499190611c54565b611053565b60405161035b9190611bfc565b60405180910390f35b34801561037057600080fd5b5061038b60048036038101906103869190611c54565b6110f8565b6040516103989190611b51565b60405180910390f35b3480156103ad57600080fd5b506103c860048036038101906103c39190611fba565b611122565b005b3480156103d657600080fd5b506103f160048036038101906103ec9190611c54565b611132565b6040516103fe9190611cc2565b60405180910390f35b34801561041357600080fd5b5061042e60048036038101906104299190611c54565b61116f565b005b34801561043c57600080fd5b5061045760048036038101906104529190612037565b611207565b604051610464919061201c565b60405180910390f35b34801561047957600080fd5b50610494600480360381019061048f9190611c54565b611288565b6040516104a1919061201c565b60405180910390f35b3480156104b657600080fd5b506104bf6112a5565b6040516104cc9190611bfc565b60405180910390f35b3480156104e157600080fd5b506104ea611337565b6040516104f7919061201c565b60405180910390f35b34801561050c57600080fd5b5061052760048036038101906105229190612064565b611348565b005b34801561053557600080fd5b50610550600480360381019061054b9190611c54565b61148b565b60405161055d919061201c565b60405180910390f35b34801561057257600080fd5b5061058d600480360381019061058891906121d4565b6114a8565b005b34801561059b57600080fd5b506105b660048036038101906105b19190611c54565b611605565b6040516105c3919061201c565b60405180910390f35b3480156105d857600080fd5b506105f360048036038101906105ee9190611c54565b611622565b6040516106009190611bfc565b60405180910390f35b610623600480360381019061061e91906122f8565b611661565b604051610630919061201c565b60405180910390f35b34801561064557600080fd5b50610660600480360381019061065b9190611c54565b6117d8565b60405161066d9190611b51565b60405180910390f35b34801561068257600080fd5b5061069d60048036038101906106989190611c54565b611802565b6040516106aa919061201c565b60405180910390f35b3480156106bf57600080fd5b506106da60048036038101906106d591906123de565b61181f565b6040516106e79190611b51565b60405180910390f35b60007f80ac58cd000000000000000000000000000000000000000000000000000000007bffffffffffffffffffffffffffffffffffffffffffffffffffffffff1916827bffffffffffffffffffffffffffffffffffffffffffffffffffffffff191614806107bb57507f5b5e139f000000000000000000000000000000000000000000000000000000007bffffffffffffffffffffffffffffffffffffffffffffffffffffffff1916827bffffffffffffffffffffffffffffffffffffffffffffffffffffffff1916145b806107cb57506107ca826118b3565b5b9050919050565b6060600080546107e19061244d565b80601f016020809104026020016040519081016040528092919081815260200182805461080d9061244d565b801561085a5780601f1061082f5761010080835404028352916020019161085a565b820191906000526020600020905b81548152906001019060200180831161083d57829003601f168201915b5050505050905090565b60006004600083815260200190815260200160002060009054906101000a900473ffffffffffffffffffffffffffffffffffffffff169050919050565b6108aa81611132565b73ffffffffffffffffffffffffffffffffffffffff163373ffffffffffffffffffffffffffffffffffffffff16146108e157600080fd5b816004600083815260200190815260200160002060006101000a81548173ffffffffffffffffffffffffffffffffffffffff021916908373ffffffffffffffffffffffffffffffffffffffff160217905550808273ffffffffffffffffffffffffffffffffffffffff163373ffffffffffffffffffffffffffffffffffffffff167f8c5be1e5ebec7d5bd14f71427d1e84f3dd0314c0f7b2291e5b200ac8c7c3b92560405160405180910390a45050565b606060008c116109d7576040517f08c379a00000000000000000000000000000000000000000000000000000000081526004016109ce906124f0565b60405180910390fd5b60008c67ffffffffffffffff8111156109f3576109f26120a9565b5b604051908082528060200260200182016040528015610a215781602001602082028036833780820191505090505b50905060005b8d811015610ab657610a848d8d8d8080601f016020809104026020016040519081016040528093929190818152602001838380828437600081840152601f19601f820116905080830192505050505050508c8c8c8c8c8c8c611661565b828281518110610a9757610a96612510565b5b6020026020010181815250508080610aae9061256e565b915050610a27565b508873ffffffffffffffffffffffffffffffffffffffff167fab3083391fb519041cb2f305a7129d3c42523f051adb3757fc569243e530d64382604051610afd9190611f98565b60405180910390a2809150509b9a5050505050505050505050565b6000610b2382611132565b90508373ffffffffffffffffffffffffffffffffffffffff168173ffffffffffffffffffffffffffffffffffffffff1614610b93576040517f08c379a0000000000000000000000000000000000000000000000000000000008152600401610b8a90612628565b60405180910390fd5b600073ffffffffffffffffffffffffffffffffffffffff168373ffffffffffffffffffffffffffffffffffffffff1603610c02576040517f08c379a0000000000000000000000000000000000000000000000000000000008152600401610bf990612694565b60405180910390fd5b60006004600084815260200190815260200160002060009054906101000a900473ffffffffffffffffffffffffffffffffffffffff1690506000600560008473ffffffffffffffffffffffffffffffffffffffff1673ffffffffffffffffffffffffffffffffffffffff16815260200190815260200160002060003373ffffffffffffffffffffffffffffffffffffffff1673ffffffffffffffffffffffffffffffffffffffff16815260200190815260200160002060009054906101000a900460ff1690503373ffffffffffffffffffffffffffffffffffffffff168373ffffffffffffffffffffffffffffffffffffffff161480610d2d57503373ffffffffffffffffffffffffffffffffffffffff168273ffffffffffffffffffffffffffffffffffffffff16145b80610d355750805b610d74576040517f08c379a0000000000000000000000000000000000000000000000000000000008152600401610d6b90612726565b60405180910390fd5b846002600086815260200190815260200160002060006101000a81548173ffffffffffffffffffffffffffffffffffffffff021916908373ffffffffffffffffffffffffffffffffffffffff1602179055506001600360008873ffffffffffffffffffffffffffffffffffffffff1673ffffffffffffffffffffffffffffffffffffffff1681526020019081526020016000206000828254610e169190612746565b925050819055600360008873ffffffffffffffffffffffffffffffffffffffff1673ffffffffffffffffffffffffffffffffffffffff168152602001908152602001600020819055506001600360008773ffffffffffffffffffffffffffffffffffffffff1673ffffffffffffffffffffffffffffffffffffffff1681526020019081526020016000206000828254610eaf919061277a565b925050819055600360008773ffffffffffffffffffffffffffffffffffffffff1673ffffffffffffffffffffffffffffffffffffffff16815260200190815260200160002081905550600073ffffffffffffffffffffffffffffffffffffffff166004600086815260200190815260200160002060009054906101000a900473ffffffffffffffffffffffffffffffffffffffff1673ffffffffffffffffffffffffffffffffffffffff1614610f96576004600085815260200190815260200160002060006101000a81549073ffffffffffffffffffffffffffffffffffffffff02191690555b838573ffffffffffffffffffffffffffffffffffffffff168773ffffffffffffffffffffffffffffffffffffffff167fddf252ad1be2c89b69c2b068fc378daa952ba7f163c4a11628f55a4df523b3ef60405160405180910390a4505050505050565b60006009600083815260200190815260200160002060009054906101000a900473ffffffffffffffffffffffffffffffffffffffff169050919050565b6000600a6000838152602001908152602001600020549050919050565b60606007600083815260200190815260200160002080546110739061244d565b80601f016020809104026020016040519081016040528092919081815260200182805461109f9061244d565b80156110ec5780601f106110c1576101008083540402835291602001916110ec565b820191906000526020600020905b8154815290600101906020018083116110cf57829003601f168201915b50505050509050919050565b6000600d600083815260200190815260200160002060009054906101000a900460ff169050919050565b61112d838383610b18565b505050565b60006002600083815260200190815260200160002060009054906101000a900473ffffffffffffffffffffffffffffffffffffffff169050919050565b80600015156008600083815260200190815260200160002060009054906101000a900460ff161515146111d7576040517f08c379a00000000000000000000000000000000000000000000000000000000081526004016111ce906127fa565b60405180910390fd5b60016008600084815260200190815260200160002060006101000a81548160ff0219169083151502179055505050565b60008073ffffffffffffffffffffffffffffffffffffffff168273ffffffffffffffffffffffffffffffffffffffff160361124157600080fd5b600360008373ffffffffffffffffffffffffffffffffffffffff1673ffffffffffffffffffffffffffffffffffffffff168152602001908152602001600020549050919050565b6000600c6000838152602001908152602001600020549050919050565b6060600180546112b49061244d565b80601f01602080910402602001604051908101604052809291908181526020018280546112e09061244d565b801561132d5780601f106113025761010080835404028352916020019161132d565b820191906000526020600020905b81548152906001019060200180831161131057829003601f168201915b5050505050905090565b6000611343600661191d565b905090565b8173ffffffffffffffffffffffffffffffffffffffff163373ffffffffffffffffffffffffffffffffffffffff160361138057600080fd5b806005600061138d61192b565b73ffffffffffffffffffffffffffffffffffffffff1673ffffffffffffffffffffffffffffffffffffffff16815260200190815260200160002060008473ffffffffffffffffffffffffffffffffffffffff1673ffffffffffffffffffffffffffffffffffffffff16815260200190815260200160002060006101000a81548160ff0219169083151502179055508173ffffffffffffffffffffffffffffffffffffffff1661143a61192b565b73ffffffffffffffffffffffffffffffffffffffff167f17307eab39ab6107e8899845ad3d59bd9653f200f220920489ca2b5937696c318360405161147f9190611b51565b60405180910390a35050565b6000600f6000838152602001908152602001600020549050919050565b6114b3848484610b18565b6114d28373ffffffffffffffffffffffffffffffffffffffff16611933565b156115ff5760008373ffffffffffffffffffffffffffffffffffffffff1663150b7a02338786866040518563ffffffff1660e01b8152600401611518949392919061286f565b6020604051808303816000875af1158015611537573d6000803e3d6000fd5b505050506040513d601f19601f8201168201806040525081019061155b91906128d0565b90507facb7d9e3059f17bdabc47ad03f0278ec3c162128a4c73cef5bc7ea8fcd3af9a67bffffffffffffffffffffffffffffffffffffffffffffffffffffffff1916817bffffffffffffffffffffffffffffffffffffffffffffffffffffffff1916146115fd576040517f08c379a00000000000000000000000000000000000000000000000000000000081526004016115f49061296f565b60405180910390fd5b505b50505050565b6000600b6000838152602001908152602001600020549050919050565b60606040518060400160405280600481526020017f74657374000000000000000000000000000000000000000000000000000000008152509050919050565b600061166d6006611946565b6000611679600661191d565b9050611685898261195c565b896007600083815260200190815260200160002090816116a59190612b3b565b5060006008600083815260200190815260200160002060006101000a81548160ff021916908315150217905550886009600083815260200190815260200160002060006101000a81548173ffffffffffffffffffffffffffffffffffffffff021916908373ffffffffffffffffffffffffffffffffffffffff16021790555087600a60008381526020019081526020016000208190555085600b60008381526020019081526020016000208190555084600c60008381526020019081526020016000208190555086600d600083815260200190815260200160002060006101000a81548160ff02191690831515021790555083600e60008381526020019081526020016000208190555082600f600083815260200190815260200160002081905550809150509998505050505050505050565b60006008600083815260200190815260200160002060009054906101000a900460ff169050919050565b6000600e6000838152602001908152602001600020549050919050565b6000600560008473ffffffffffffffffffffffffffffffffffffffff1673ffffffffffffffffffffffffffffffffffffffff16815260200190815260200160002060008373ffffffffffffffffffffffffffffffffffffffff1673ffffffffffffffffffffffffffffffffffffffff16815260200190815260200160002060009054906101000a900460ff16905092915050565b60007f01ffc9a7000000000000000000000000000000000000000000000000000000007bffffffffffffffffffffffffffffffffffffffffffffffffffffffff1916827bffffffffffffffffffffffffffffffffffffffffffffffffffffffff1916149050919050565b600081600001549050919050565b600033905090565b600080823b905060008111915050919050565b6001816000016000828254019250508190555050565b600073ffffffffffffffffffffffffffffffffffffffff168273ffffffffffffffffffffffffffffffffffffffff160361199557600080fd5b6001600360008473ffffffffffffffffffffffffffffffffffffffff1673ffffffffffffffffffffffffffffffffffffffff16815260200190815260200160002060008282546119e5919061277a565b92505081905550816002600083815260200190815260200160002060006101000a81548173ffffffffffffffffffffffffffffffffffffffff021916908373ffffffffffffffffffffffffffffffffffffffff160217905550808273ffffffffffffffffffffffffffffffffffffffff168373ffffffffffffffffffffffffffffffffffffffff167fddf252ad1be2c89b69c2b068fc378daa952ba7f163c4a11628f55a4df523b3ef60405160405180910390a45050565b6000604051905090565b600080fd5b600080fd5b60007fffffffff0000000000000000000000000000000000000000000000000000000082169050919050565b611ae681611ab1565b8114611af157600080fd5b50565b600081359050611b0381611add565b92915050565b600060208284031215611b1f57611b1e611aa7565b5b6000611b2d84828501611af4565b91505092915050565b60008115159050919050565b611b4b81611b36565b82525050565b6000602082019050611b666000830184611b42565b92915050565b600081519050919050565b600082825260208201905092915050565b60005b83811015611ba6578082015181840152602081019050611b8b565b60008484015250505050565b6000601f19601f8301169050919050565b6000611bce82611b6c565b611bd88185611b77565b9350611be8818560208601611b88565b611bf181611bb2565b840191505092915050565b60006020820190508181036000830152611c168184611bc3565b905092915050565b6000819050919050565b611c3181611c1e565b8114611c3c57600080fd5b50565b600081359050611c4e81611c28565b92915050565b600060208284031215611c6a57611c69611aa7565b5b6000611c7884828501611c3f565b91505092915050565b600073ffffffffffffffffffffffffffffffffffffffff82169050919050565b6000611cac82611c81565b9050919050565b611cbc81611ca1565b82525050565b6000602082019050611cd76000830184611cb3565b92915050565b611ce681611ca1565b8114611cf157600080fd5b50565b600081359050611d0381611cdd565b92915050565b60008060408385031215611d2057611d1f611aa7565b5b6000611d2e85828601611cf4565b9250506020611d3f85828601611c3f565b9150509250929050565b600080fd5b600080fd5b600080fd5b60008083601f840112611d6e57611d6d611d49565b5b8235905067ffffffffffffffff811115611d8b57611d8a611d4e565b5b602083019150836001820283011115611da757611da6611d53565b5b9250929050565b611db781611b36565b8114611dc257600080fd5b50565b600081359050611dd481611dae565b92915050565b60008060008060008060008060008060006101408c8e031215611e0057611dff611aa7565b5b6000611e0e8e828f01611c3f565b9b50506020611e1f8e828f01611cf4565b9a505060408c013567ffffffffffffffff811115611e4057611e3f611aac565b5b611e4c8e828f01611d58565b99509950506060611e5f8e828f01611cf4565b9750506080611e708e828f01611c3f565b96505060a0611e818e828f01611dc5565b95505060c0611e928e828f01611c3f565b94505060e0611ea38e828f01611c3f565b935050610100611eb58e828f01611c3f565b925050610120611ec78e828f01611c3f565b9150509295989b509295989b9093969950565b600081519050919050565b600082825260208201905092915050565b6000819050602082019050919050565b611f0f81611c1e565b82525050565b6000611f218383611f06565b60208301905092915050565b6000602082019050919050565b6000611f4582611eda565b611f4f8185611ee5565b9350611f5a83611ef6565b8060005b83811015611f8b578151611f728882611f15565b9750611f7d83611f2d565b925050600181019050611f5e565b5085935050505092915050565b60006020820190508181036000830152611fb28184611f3a565b905092915050565b600080600060608486031215611fd357611fd2611aa7565b5b6000611fe186828701611cf4565b9350506020611ff286828701611cf4565b925050604061200386828701611c3f565b9150509250925092565b61201681611c1e565b82525050565b6000602082019050612031600083018461200d565b92915050565b60006020828403121561204d5761204c611aa7565b5b600061205b84828501611cf4565b91505092915050565b6000806040838503121561207b5761207a611aa7565b5b600061208985828601611cf4565b925050602061209a85828601611dc5565b9150509250929050565b600080fd5b7f4e487b7100000000000000000000000000000000000000000000000000000000600052604160045260246000fd5b6120e182611bb2565b810181811067ffffffffffffffff82111715612100576120ff6120a9565b5b80604052505050565b6000612113611a9d565b905061211f82826120d8565b919050565b600067ffffffffffffffff82111561213f5761213e6120a9565b5b61214882611bb2565b9050602081019050919050565b82818337600083830152505050565b600061217761217284612124565b612109565b905082815260208101848484011115612193576121926120a4565b5b61219e848285612155565b509392505050565b600082601f8301126121bb576121ba611d49565b5b81356121cb848260208601612164565b91505092915050565b600080600080608085870312156121ee576121ed611aa7565b5b60006121fc87828801611cf4565b945050602061220d87828801611cf4565b935050604061221e87828801611c3f565b925050606085013567ffffffffffffffff81111561223f5761223e611aac565b5b61224b878288016121a6565b91505092959194509250565b600067ffffffffffffffff821115612272576122716120a9565b5b61227b82611bb2565b9050602081019050919050565b600061229b61229684612257565b612109565b9050828152602081018484840111156122b7576122b66120a4565b5b6122c2848285612155565b509392505050565b600082601f8301126122df576122de611d49565b5b81356122ef848260208601612288565b91505092915050565b60008060008060008060008060006101208a8c03121561231b5761231a611aa7565b5b60006123298c828d01611cf4565b99505060208a013567ffffffffffffffff81111561234a57612349611aac565b5b6123568c828d016122ca565b98505060406123678c828d01611cf4565b97505060606123788c828d01611c3f565b96505060806123898c828d01611dc5565b95505060a061239a8c828d01611c3f565b94505060c06123ab8c828d01611c3f565b93505060e06123bc8c828d01611c3f565b9250506101006123ce8c828d01611c3f565b9150509295985092959850929598565b600080604083850312156123f5576123f4611aa7565b5b600061240385828601611cf4565b925050602061241485828601611cf4565b9150509250929050565b7f4e487b7100000000000000000000000000000000000000000000000000000000600052602260045260246000fd5b6000600282049050600182168061246557607f821691505b6020821081036124785761247761241e565b5b50919050565b7f4e756d626572206f6620746f6b656e73206d757374206265206772656174657260008201527f207468616e207a65726f00000000000000000000000000000000000000000000602082015250565b60006124da602a83611b77565b91506124e58261247e565b604082019050919050565b60006020820190508181036000830152612509816124cd565b9050919050565b7f4e487b7100000000000000000000000000000000000000000000000000000000600052603260045260246000fd5b7f4e487b7100000000000000000000000000000000000000000000000000000000600052601160045260246000fd5b600061257982611c1e565b91507fffffffffffffffffffffffffffffffffffffffffffffffffffffffffffffffff82036125ab576125aa61253f565b5b600182019050919050565b7f5f66726f6d206973204e4f5420746865206f776e6572206f662074686520746f60008201527f6b656e0000000000000000000000000000000000000000000000000000000000602082015250565b6000612612602383611b77565b915061261d826125b6565b604082019050919050565b6000602082019050818103600083015261264181612605565b9050919050565b7f5472616e73666572205f746f2061646472657373203078300000000000000000600082015250565b600061267e601883611b77565b915061268982612648565b602082019050919050565b600060208201905081810360008301526126ad81612671565b9050919050565b7f6d73672e73656e64657220646f6573206e6f74207472616e7366657261626c6560008201527f20746f6b656e0000000000000000000000000000000000000000000000000000602082015250565b6000612710602683611b77565b915061271b826126b4565b604082019050919050565b6000602082019050818103600083015261273f81612703565b9050919050565b600061275182611c1e565b915061275c83611c1e565b92508282039050818111156127745761277361253f565b5b92915050565b600061278582611c1e565b915061279083611c1e565b92508282019050808211156127a8576127a761253f565b5b92915050565b7f616c726561647920757365640000000000000000000000000000000000000000600082015250565b60006127e4600c83611b77565b91506127ef826127ae565b602082019050919050565b60006020820190508181036000830152612813816127d7565b9050919050565b600081519050919050565b600082825260208201905092915050565b60006128418261281a565b61284b8185612825565b935061285b818560208601611b88565b61286481611bb2565b840191505092915050565b60006080820190506128846000830187611cb3565b6128916020830186611cb3565b61289e604083018561200d565b81810360608301526128b08184612836565b905095945050505050565b6000815190506128ca81611add565b92915050565b6000602082840312156128e6576128e5611aa7565b5b60006128f4848285016128bb565b91505092915050565b7f72656365697074206f6620746f6b656e206973204e4f5420636f6d706c65746560008201527f6400000000000000000000000000000000000000000000000000000000000000602082015250565b6000612959602183611b77565b9150612964826128fd565b604082019050919050565b600060208201905081810360008301526129888161294c565b9050919050565b60008190508160005260206000209050919050565b60006020601f8301049050919050565b600082821b905092915050565b6000600883026129f17fffffffffffffffffffffffffffffffffffffffffffffffffffffffffffffffff826129b4565b6129fb86836129b4565b95508019841693508086168417925050509392505050565b6000819050919050565b6000612a38612a33612a2e84611c1e565b612a13565b611c1e565b9050919050565b6000819050919050565b612a5283612a1d565b612a66612a5e82612a3f565b8484546129c1565b825550505050565b600090565b612a7b612a6e565b612a86818484612a49565b505050565b5b81811015612aaa57612a9f600082612a73565b600181019050612a8c565b5050565b601f821115612aef57612ac08161298f565b612ac9846129a4565b81016020851015612ad8578190505b612aec612ae4856129a4565b830182612a8b565b50505b505050565b600082821c905092915050565b6000612b1260001984600802612af4565b1980831691505092915050565b6000612b2b8383612b01565b9150826002028217905092915050565b612b4482611b6c565b67ffffffffffffffff811115612b5d57612b5c6120a9565b5b612b67825461244d565b612b72828285612aae565b600060209050601f831160018114612ba55760008415612b93578287015190505b612b9d8582612b1f565b865550612c05565b601f198416612bb38661298f565b60005b82811015612bdb57848901518255600182019150602085019450602081019050612bb6565b86831015612bf85784890151612bf4601f891682612b01565b8355505b6001600288020188555050505b50505050505056fea2646970667358221220a705353e37787f364f8010d651d5fa256ffdbd1ba0b2950a021b00c5332a90ac64736f6c63430008130033",
  "immutableReferences": {},
  "source": "// SPDX-License-Identifier: MIT\r\npragma solidity ^0.8.4;\r\n\r\nimport \"./token/ERC721/ERC721.sol\";\r\nimport \"../node_modules/@openzeppelin/contracts/utils/Counters.sol\";\r\n\r\ncontract Nfast is ERC721 {\r\n    using Counters for Counters.Counter;\r\n\r\n    Counters.Counter private tokenIds;\r\n    //URI  \r\n    //{ , , , }  ipfs \r\n    mapping(uint256 => string) tokenURIs;\r\n    //\r\n    mapping(uint256 => bool) isUse;\r\n    // \r\n    mapping(uint256 => address) storeAddress;\r\n    //\r\n    mapping(uint256 => uint256) date;\r\n    //\r\n    mapping(uint256 => uint256) startTime;\r\n    //\r\n    mapping(uint256 => uint256) endTime;\r\n    //,  \r\n    mapping(uint256 => bool) mealType;\r\n    //\r\n    mapping(uint256 => uint256) price;\r\n    //\r\n    mapping(uint256 => uint) charge;\r\n\r\n    event CreateAll(address indexed _store, uint256[] tokenIds);\r\n\r\n    constructor(string memory name_, string memory symbol_)\r\n    ERC721(name_, symbol_)\r\n    {\r\n    }\r\n\r\n    function current() public view returns (uint256) {\r\n        return tokenIds.current();\r\n    }\r\n\r\n    function create(address _to, string memory _tokenURI, address _storeAddress, uint256 _date, bool _mealType, uint256 _startTime, uint256 _endTime, uint256 _price, uint _charge)\r\n    public\r\n    payable\r\n    returns (uint256)\r\n    {\r\n\r\n        tokenIds.increment();\r\n        uint256 newTokenId = tokenIds.current();\r\n        _mint(_storeAddress, newTokenId);\r\n\r\n        tokenURIs[newTokenId] = _tokenURI;\r\n        isUse[newTokenId] = false;\r\n        storeAddress[newTokenId] = _storeAddress;\r\n        date[newTokenId] = _date;\r\n        startTime[newTokenId] = _startTime;\r\n        endTime[newTokenId] = _endTime;\r\n        mealType[newTokenId] = _mealType;\r\n        price[newTokenId] = _price;\r\n        charge[newTokenId] = _charge;\r\n\r\n        //  \r\n        //        approve(_to, newTokenId);\r\n        return newTokenId;\r\n    }\r\n\r\n    function createAll(uint256 _numTokens, address  _to, string  calldata _tokenURI, address  _storeAddress, uint256  _date, bool  _mealType, uint256  _startTime, uint256  _endTime, uint256  _price, uint256  _charge\r\n    )\r\n    public\r\n    payable\r\n    returns (uint256[] memory) {\r\n        require(_numTokens > 0, \"Number of tokens must be greater than zero\");\r\n\r\n        uint256[] memory tokenIds = new uint256[](_numTokens);\r\n\r\n        for (uint256 i = 0; i < _numTokens; i++) {\r\n            tokenIds[i] = create(\r\n                _to,\r\n                _tokenURI,\r\n                _storeAddress,\r\n                _date,\r\n                _mealType,\r\n                _startTime,\r\n                _endTime,\r\n                _price,\r\n                _charge\r\n            );\r\n        }\r\n\r\n        emit CreateAll(_storeAddress,tokenIds);\r\n        return tokenIds;\r\n    }\r\n\r\n    function _burn(uint256 _tokenId)\r\n    internal\r\n    virtual\r\n    override {\r\n        super._burn(_tokenId);\r\n    }\r\n\r\n    function setIsUse(uint256 _tokenId)\r\n    public\r\n    onlyNotUse(_tokenId) {\r\n        isUse[_tokenId] = true;\r\n    }\r\n\r\n    function getTokenURI(uint256 _tokenId)\r\n    public\r\n    view\r\n    returns (string memory)\r\n    {\r\n        return tokenURIs[_tokenId];\r\n    }\r\n\r\n    function getIsUse(uint256 _tokenId)\r\n    public\r\n    view\r\n    returns (bool)\r\n    {\r\n        return isUse[_tokenId];\r\n    }\r\n\r\n    function getStoreAddress(uint256 _tokenId)\r\n    public\r\n    view\r\n    returns (address)\r\n    {\r\n        return storeAddress[_tokenId];\r\n    }\r\n\r\n    function getDate(uint256 _tokenId)\r\n    public\r\n    view\r\n    returns (uint256)\r\n    {\r\n        return date[_tokenId];\r\n    }\r\n\r\n    function getStartTime(uint256 _tokenId)\r\n    public\r\n    view\r\n    returns (uint256)\r\n    {\r\n        return startTime[_tokenId];\r\n    }\r\n\r\n    function getEndTime(uint256 _tokenId)\r\n    public\r\n    view\r\n    returns (uint256)\r\n    {\r\n        return endTime[_tokenId];\r\n    }\r\n\r\n    function getMealType(uint256 _tokenId)\r\n    public\r\n    view\r\n    returns (bool)\r\n    {\r\n        return mealType[_tokenId];\r\n    }\r\n\r\n    function getPrice(uint256 _tokenId)\r\n    public\r\n    view\r\n    returns (uint256)\r\n    {\r\n        return price[_tokenId];\r\n    }\r\n\r\n    function getCharge(uint256 _tokenId)\r\n    public\r\n    view\r\n    returns (uint)\r\n    {\r\n        return charge[_tokenId];\r\n    }\r\n    modifier onlyNotUse(uint256 _tokenId){\r\n        require(isUse[_tokenId] == false, \"already used\");\r\n        _;\r\n    }\r\n\r\n    modifier onlyStoreAddressInNfast(uint256 _tokenId){\r\n        require(msg.sender == storeAddress[_tokenId], \"only store address in nfast\");\r\n        _;\r\n    }\r\n}",
  "sourcePath": "C:\\ssafy\\git\\S08P22A307\\smartContract\\contracts\\Nfast.sol",
  "compiler": {
    "name": "solc",
    "version": "0.8.19+commit.7dd6d404.Emscripten.clang"
  },
  "schemaVersion": "3.4.12",
  "updatedAt": "2023-03-29T01:59:07.506Z",
  "networkType": "ethereum",
  "devdoc": {
    "events": {
      "Approval(address,address,uint256)": {
        "details": "Emitted when `owner` enables `approved` to manage the `tokenId` token."
      },
      "ApprovalForAll(address,address,bool)": {
        "details": "Emitted when `owner` enables or disables (`approved`) `operator` to manage all of its assets."
      },
      "Transfer(address,address,uint256)": {
        "details": "Emitted when `tokenId` token is transferred from `from` to `to`."
      }
    },
    "kind": "dev",
    "methods": {
      "approve(address,uint256)": {
        "details": "See {IERC721-approve}."
      },
      "balanceOf(address)": {
        "details": "See {IERC721-balanceOf}."
      },
      "getApproved(uint256)": {
        "details": "See {IERC721-getApproved}."
      },
      "isApprovedForAll(address,address)": {
        "details": "See {IERC721-isApprovedForAll}."
      },
      "name()": {
        "details": "See {IERC721Metadata-name}."
      },
      "ownerOf(uint256)": {
        "details": "See {IERC721-ownerOf}."
      },
      "safeTransferFrom(address,address,uint256)": {
        "details": "See {IERC721-safeTransferFrom}."
      },
      "safeTransferFrom(address,address,uint256,bytes)": {
        "details": "See {IERC721-safeTransferFrom}."
      },
      "setApprovalForAll(address,bool)": {
        "details": "See {IERC721-setApprovalForAll}."
      },
      "supportsInterface(bytes4)": {
        "details": "See {IERC165-supportsInterface}."
      },
      "symbol()": {
        "details": "See {IERC721Metadata-symbol}."
      },
      "tokenURI(uint256)": {
        "details": "See {IERC721Metadata-tokenURI}."
      },
      "transferFrom(address,address,uint256)": {
        "details": "See {IERC721-transferFrom}."
      }
    },
    "version": 1
  },
  "userdoc": {
    "kind": "user",
    "methods": {},
    "version": 1
  }
}