{
  "contractName": "Sale",
  "abi": [
    {
      "inputs": [
        {
          "internalType": "uint256",
          "name": "_nftId",
          "type": "uint256"
        },
        {
          "internalType": "uint256",
          "name": "_price",
          "type": "uint256"
        },
        {
          "internalType": "bool",
          "name": "_isStore",
          "type": "bool"
        },
        {
          "internalType": "uint256",
          "name": "_startDate",
          "type": "uint256"
        },
        {
          "internalType": "uint256",
          "name": "_endDate",
          "type": "uint256"
        },
        {
          "internalType": "address",
          "name": "_currencyAddress",
          "type": "address"
        },
        {
          "internalType": "address",
          "name": "_nftAddress",
          "type": "address"
        },
        {
          "internalType": "address",
          "name": "_sellerAddress",
          "type": "address"
        }
      ],
      "stateMutability": "nonpayable",
      "type": "constructor"
    },
    {
      "anonymous": false,
      "inputs": [
        {
          "indexed": true,
          "internalType": "address",
          "name": "previousOwner",
          "type": "address"
        },
        {
          "indexed": true,
          "internalType": "address",
          "name": "newOwner",
          "type": "address"
        }
      ],
      "name": "OwnershipTransferred",
      "type": "event"
    },
    {
      "anonymous": false,
      "inputs": [
        {
          "indexed": true,
          "internalType": "uint256",
          "name": "_nftId",
          "type": "uint256"
        },
        {
          "indexed": false,
          "internalType": "address",
          "name": "_seller",
          "type": "address"
        },
        {
          "indexed": false,
          "internalType": "address",
          "name": "_buyer",
          "type": "address"
        }
      ],
      "name": "Purchase",
      "type": "event"
    },
    {
      "anonymous": false,
      "inputs": [
        {
          "indexed": true,
          "internalType": "uint256",
          "name": "_nftId",
          "type": "uint256"
        },
        {
          "indexed": false,
          "internalType": "address",
          "name": "_to",
          "type": "address"
        }
      ],
      "name": "Refund",
      "type": "event"
    },
    {
      "anonymous": false,
      "inputs": [
        {
          "indexed": true,
          "internalType": "address",
          "name": "_to",
          "type": "address"
        },
        {
          "indexed": false,
          "internalType": "uint256",
          "name": "_price",
          "type": "uint256"
        }
      ],
      "name": "Withdraw",
      "type": "event"
    },
    {
      "inputs": [],
      "name": "currencyAddress",
      "outputs": [
        {
          "internalType": "address",
          "name": "",
          "type": "address"
        }
      ],
      "stateMutability": "view",
      "type": "function"
    },
    {
      "inputs": [],
      "name": "erc20Contract",
      "outputs": [
        {
          "internalType": "contract IERC20",
          "name": "",
          "type": "address"
        }
      ],
      "stateMutability": "view",
      "type": "function"
    },
    {
      "inputs": [],
      "name": "erc721Contract",
      "outputs": [
        {
          "internalType": "contract Nfast",
          "name": "",
          "type": "address"
        }
      ],
      "stateMutability": "view",
      "type": "function"
    },
    {
      "inputs": [],
      "name": "nftAddress",
      "outputs": [
        {
          "internalType": "address",
          "name": "",
          "type": "address"
        }
      ],
      "stateMutability": "view",
      "type": "function"
    },
    {
      "inputs": [],
      "name": "owner",
      "outputs": [
        {
          "internalType": "address",
          "name": "",
          "type": "address"
        }
      ],
      "stateMutability": "view",
      "type": "function"
    },
    {
      "inputs": [],
      "name": "renounceOwnership",
      "outputs": [],
      "stateMutability": "nonpayable",
      "type": "function"
    },
    {
      "inputs": [
        {
          "internalType": "address",
          "name": "newOwner",
          "type": "address"
        }
      ],
      "name": "transferOwnership",
      "outputs": [],
      "stateMutability": "nonpayable",
      "type": "function"
    },
    {
      "inputs": [],
      "name": "purchase",
      "outputs": [],
      "stateMutability": "payable",
      "type": "function"
    },
    {
      "inputs": [],
      "name": "refund",
      "outputs": [],
      "stateMutability": "payable",
      "type": "function"
    },
    {
      "inputs": [],
      "name": "withdraw",
      "outputs": [],
      "stateMutability": "payable",
      "type": "function"
    },
    {
      "inputs": [],
      "name": "getSaleInfo",
      "outputs": [
        {
          "internalType": "uint256",
          "name": "",
          "type": "uint256"
        },
        {
          "internalType": "uint256",
          "name": "",
          "type": "uint256"
        },
        {
          "internalType": "uint256",
          "name": "",
          "type": "uint256"
        },
        {
          "internalType": "uint256",
          "name": "",
          "type": "uint256"
        },
        {
          "internalType": "address",
          "name": "",
          "type": "address"
        },
        {
          "internalType": "bool",
          "name": "",
          "type": "bool"
        },
        {
          "internalType": "address",
          "name": "",
          "type": "address"
        },
        {
          "internalType": "address",
          "name": "",
          "type": "address"
        }
      ],
      "stateMutability": "view",
      "type": "function"
    },
    {
      "inputs": [
        {
          "internalType": "address",
          "name": "operator",
          "type": "address"
        },
        {
          "internalType": "address",
          "name": "from",
          "type": "address"
        },
        {
          "internalType": "uint256",
          "name": "tokenId",
          "type": "uint256"
        },
        {
          "internalType": "bytes",
          "name": "data",
          "type": "bytes"
        }
      ],
      "name": "onERC721Received",
      "outputs": [
        {
          "internalType": "bytes4",
          "name": "",
          "type": "bytes4"
        }
      ],
      "stateMutability": "nonpayable",
      "type": "function"
    }
  ],
  "bytecode": "0x60806040523480156200001157600080fd5b5060405162002820380380620028208339818101604052810190620000379190620003ef565b620000576200004b6200024160201b60201c565b6200024960201b60201c565b600087116200009d576040517f08c379a0000000000000000000000000000000000000000000000000000000008152600401620000949062000519565b60405180910390fd5b876001819055508660038190555080600760016101000a81548173ffffffffffffffffffffffffffffffffffffffff021916908373ffffffffffffffffffffffffffffffffffffffff160217905550846005819055508360068190555082600960006101000a81548173ffffffffffffffffffffffffffffffffffffffff021916908373ffffffffffffffffffffffffffffffffffffffff16021790555081600a60006101000a81548173ffffffffffffffffffffffffffffffffffffffff021916908373ffffffffffffffffffffffffffffffffffffffff1602179055506000600760006101000a81548160ff02191690831515021790555082600b60006101000a81548173ffffffffffffffffffffffffffffffffffffffff021916908373ffffffffffffffffffffffffffffffffffffffff16021790555081600c60006101000a81548173ffffffffffffffffffffffffffffffffffffffff021916908373ffffffffffffffffffffffffffffffffffffffff16021790555085600460006101000a81548160ff02191690831515021790555050505050505050506200053b565b600033905090565b60008060009054906101000a900473ffffffffffffffffffffffffffffffffffffffff169050816000806101000a81548173ffffffffffffffffffffffffffffffffffffffff021916908373ffffffffffffffffffffffffffffffffffffffff1602179055508173ffffffffffffffffffffffffffffffffffffffff168173ffffffffffffffffffffffffffffffffffffffff167f8be0079c531659141344cd1fd0a4f28419497f9722a3daafe3b4186f6b6457e060405160405180910390a35050565b600080fd5b6000819050919050565b620003278162000312565b81146200033357600080fd5b50565b60008151905062000347816200031c565b92915050565b60008115159050919050565b62000364816200034d565b81146200037057600080fd5b50565b600081519050620003848162000359565b92915050565b600073ffffffffffffffffffffffffffffffffffffffff82169050919050565b6000620003b7826200038a565b9050919050565b620003c981620003aa565b8114620003d557600080fd5b50565b600081519050620003e981620003be565b92915050565b600080600080600080600080610100898b0312156200041357620004126200030d565b5b6000620004238b828c0162000336565b9850506020620004368b828c0162000336565b9750506040620004498b828c0162000373565b96505060606200045c8b828c0162000336565b95505060806200046f8b828c0162000336565b94505060a0620004828b828c01620003d8565b93505060c0620004958b828c01620003d8565b92505060e0620004a88b828c01620003d8565b9150509295985092959890939650565b600082825260208201905092915050565b7f7072696365206572726f72000000000000000000000000000000000000000000600082015250565b600062000501600b83620004b8565b91506200050e82620004c9565b602082019050919050565b600060208201905081810360008301526200053481620004f2565b9050919050565b6122d5806200054b6000396000f3fe6080604052600436106100a75760003560e01c8063715018a611610064578063715018a61461015d5780638da5cb5b14610174578063a8f6c9131461019f578063d7c97fb4146101ca578063db83694c146101f5578063f2fde38b14610227576100a7565b8063150b7a02146100ac5780631c1cb323146100e95780633ccfd60b14610114578063590e1ae31461011e5780635bf8633a1461012857806364edfbf014610153575b600080fd5b3480156100b857600080fd5b506100d360048036038101906100ce9190611844565b610250565b6040516100e09190611902565b60405180910390f35b3480156100f557600080fd5b506100fe610264565b60405161010b919061192c565b60405180910390f35b61011c61028a565b005b610126610785565b005b34801561013457600080fd5b5061013d610d46565b60405161014a919061192c565b60405180910390f35b61015b610d6c565b005b34801561016957600080fd5b506101726111a7565b005b34801561018057600080fd5b5061018961122f565b604051610196919061192c565b60405180910390f35b3480156101ab57600080fd5b506101b4611258565b6040516101c191906119a6565b60405180910390f35b3480156101d657600080fd5b506101df61127e565b6040516101ec91906119e2565b60405180910390f35b34801561020157600080fd5b5061020a6112a4565b60405161021e989796959493929190611a27565b60405180910390f35b34801561023357600080fd5b5061024e60048036038101906102499190611aa5565b6113ca565b005b600063150b7a0260e01b9050949350505050565b600960009054906101000a900473ffffffffffffffffffffffffffffffffffffffff1681565b600760019054906101000a900473ffffffffffffffffffffffffffffffffffffffff1673ffffffffffffffffffffffffffffffffffffffff163373ffffffffffffffffffffffffffffffffffffffff161461031a576040517f08c379a000000000000000000000000000000000000000000000000000000000815260040161031190611b2f565b60405180910390fd5b60011515600760009054906101000a900460ff16151514610370576040517f08c379a000000000000000000000000000000000000000000000000000000000815260040161036790611b9b565b60405180910390fd5b6000600354905060001515600460009054906101000a900460ff1615150361064e5760006104576064610449600c60009054906101000a900473ffffffffffffffffffffffffffffffffffffffff1673ffffffffffffffffffffffffffffffffffffffff1663b82edd5c6001546040518263ffffffff1660e01b81526004016103f99190611bbb565b602060405180830381865afa158015610416573d6000803e3d6000fd5b505050506040513d601f19601f8201168201806040525081019061043a9190611beb565b856114c190919063ffffffff16565b6114d790919063ffffffff16565b9050806003546104679190611c47565b9150600b60009054906101000a900473ffffffffffffffffffffffffffffffffffffffff1673ffffffffffffffffffffffffffffffffffffffff1663a9059cbb33846040518363ffffffff1660e01b81526004016104c6929190611c7b565b6020604051808303816000875af11580156104e5573d6000803e3d6000fd5b505050506040513d601f19601f820116820180604052508101906105099190611cd0565b50600b60009054906101000a900473ffffffffffffffffffffffffffffffffffffffff1673ffffffffffffffffffffffffffffffffffffffff1663a9059cbb600c60009054906101000a900473ffffffffffffffffffffffffffffffffffffffff1673ffffffffffffffffffffffffffffffffffffffff1663288fa5bf6001546040518263ffffffff1660e01b81526004016105a59190611bbb565b602060405180830381865afa1580156105c2573d6000803e3d6000fd5b505050506040513d601f19601f820116820180604052508101906105e69190611d12565b836040518363ffffffff1660e01b8152600401610604929190611c7b565b6020604051808303816000875af1158015610623573d6000803e3d6000fd5b505050506040513d601f19601f820116820180604052508101906106479190611cd0565b5050610734565b6006544211610692576040517f08c379a000000000000000000000000000000000000000000000000000000000815260040161068990611d8b565b60405180910390fd5b600b60009054906101000a900473ffffffffffffffffffffffffffffffffffffffff1673ffffffffffffffffffffffffffffffffffffffff1663a9059cbb33836040518363ffffffff1660e01b81526004016106ef929190611c7b565b6020604051808303816000875af115801561070e573d6000803e3d6000fd5b505050506040513d601f19601f820116820180604052508101906107329190611cd0565b505b3373ffffffffffffffffffffffffffffffffffffffff167f884edad9ce6fa2440d8a54cc123490eb96d2768479d49ff9c7366125a94243648260405161077a9190611bbb565b60405180910390a250565b600c60009054906101000a900473ffffffffffffffffffffffffffffffffffffffff1673ffffffffffffffffffffffffffffffffffffffff1663288fa5bf6001546040518263ffffffff1660e01b81526004016107e29190611bbb565b602060405180830381865afa1580156107ff573d6000803e3d6000fd5b505050506040513d601f19601f820116820180604052508101906108239190611d12565b73ffffffffffffffffffffffffffffffffffffffff163373ffffffffffffffffffffffffffffffffffffffff1614610890576040517f08c379a000000000000000000000000000000000000000000000000000000000815260040161088790611df7565b60405180910390fd5b60011515600760009054906101000a900460ff161515146108e6576040517f08c379a00000000000000000000000000000000000000000000000000000000081526004016108dd90611b9b565b60405180910390fd5b60001515600c60009054906101000a900473ffffffffffffffffffffffffffffffffffffffff1673ffffffffffffffffffffffffffffffffffffffff1663e48526086001546040518263ffffffff1660e01b81526004016109479190611bbb565b602060405180830381865afa158015610964573d6000803e3d6000fd5b505050506040513d601f19601f820116820180604052508101906109889190611cd0565b1515146109ca576040517f08c379a00000000000000000000000000000000000000000000000000000000081526004016109c190611e63565b60405180910390fd5b600c60009054906101000a900473ffffffffffffffffffffffffffffffffffffffff1673ffffffffffffffffffffffffffffffffffffffff16636352211e6001546040518263ffffffff1660e01b8152600401610a279190611bbb565b602060405180830381865afa158015610a44573d6000803e3d6000fd5b505050506040513d601f19601f82011682018060405250810190610a689190611d12565b73ffffffffffffffffffffffffffffffffffffffff16600860009054906101000a900473ffffffffffffffffffffffffffffffffffffffff1673ffffffffffffffffffffffffffffffffffffffff1614610af7576040517f08c379a0000000000000000000000000000000000000000000000000000000008152600401610aee90611ecf565b60405180910390fd5b600c60009054906101000a900473ffffffffffffffffffffffffffffffffffffffff1673ffffffffffffffffffffffffffffffffffffffff16636d1ce87b6001546040518263ffffffff1660e01b8152600401610b549190611bbb565b600060405180830381600087803b158015610b6e57600080fd5b505af1158015610b82573d6000803e3d6000fd5b50505050600b60009054906101000a900473ffffffffffffffffffffffffffffffffffffffff1673ffffffffffffffffffffffffffffffffffffffff166323b872dd33600860009054906101000a900473ffffffffffffffffffffffffffffffffffffffff16600c60009054906101000a900473ffffffffffffffffffffffffffffffffffffffff1673ffffffffffffffffffffffffffffffffffffffff1663e75722306001546040518263ffffffff1660e01b8152600401610c459190611bbb565b602060405180830381865afa158015610c62573d6000803e3d6000fd5b505050506040513d601f19601f82011682018060405250810190610c869190611beb565b6040518463ffffffff1660e01b8152600401610ca493929190611eef565b6020604051808303816000875af1158015610cc3573d6000803e3d6000fd5b505050506040513d601f19601f82011682018060405250810190610ce79190611cd0565b506001547f510b82fea70ff89a8cc73cd7f29db2d7b480134c160cb52a258797b42d1989ad600860009054906101000a900473ffffffffffffffffffffffffffffffffffffffff16604051610d3c919061192c565b60405180910390a2565b600a60009054906101000a900473ffffffffffffffffffffffffffffffffffffffff1681565b600554421015610db1576040517f08c379a0000000000000000000000000000000000000000000000000000000008152600401610da890611f72565b60405180910390fd5b6006544210610df5576040517f08c379a0000000000000000000000000000000000000000000000000000000008152600401610dec90611fde565b60405180910390fd5b600c60009054906101000a900473ffffffffffffffffffffffffffffffffffffffff1673ffffffffffffffffffffffffffffffffffffffff16636352211e6001546040518263ffffffff1660e01b8152600401610e529190611bbb565b602060405180830381865afa158015610e6f573d6000803e3d6000fd5b505050506040513d601f19601f82011682018060405250810190610e939190611d12565b73ffffffffffffffffffffffffffffffffffffffff16600760019054906101000a900473ffffffffffffffffffffffffffffffffffffffff1673ffffffffffffffffffffffffffffffffffffffff1614610f22576040517f08c379a0000000000000000000000000000000000000000000000000000000008152600401610f199061204a565b60405180910390fd5b600b60009054906101000a900473ffffffffffffffffffffffffffffffffffffffff1673ffffffffffffffffffffffffffffffffffffffff166370a08231336040518263ffffffff1660e01b8152600401610f7d919061192c565b602060405180830381865afa158015610f9a573d6000803e3d6000fd5b505050506040513d601f19601f82011682018060405250810190610fbe9190611beb565b6003541115611002576040517f08c379a0000000000000000000000000000000000000000000000000000000008152600401610ff9906120b6565b60405180910390fd5b600b60009054906101000a900473ffffffffffffffffffffffffffffffffffffffff1673ffffffffffffffffffffffffffffffffffffffff166323b872dd33306003546040518463ffffffff1660e01b815260040161106393929190611eef565b6020604051808303816000875af1158015611082573d6000803e3d6000fd5b505050506040513d601f19601f820116820180604052508101906110a69190611cd0565b50600c60009054906101000a900473ffffffffffffffffffffffffffffffffffffffff1673ffffffffffffffffffffffffffffffffffffffff166342842e0e600760019054906101000a900473ffffffffffffffffffffffffffffffffffffffff16336001546040518463ffffffff1660e01b815260040161112a93929190611eef565b600060405180830381600087803b15801561114457600080fd5b505af1158015611158573d6000803e3d6000fd5b5050505033600860006101000a81548173ffffffffffffffffffffffffffffffffffffffff021916908373ffffffffffffffffffffffffffffffffffffffff1602179055506111a56114ed565b565b6111af61158a565b73ffffffffffffffffffffffffffffffffffffffff166111cd61122f565b73ffffffffffffffffffffffffffffffffffffffff1614611223576040517f08c379a000000000000000000000000000000000000000000000000000000000815260040161121a90612122565b60405180910390fd5b61122d6000611592565b565b60008060009054906101000a900473ffffffffffffffffffffffffffffffffffffffff16905090565b600b60009054906101000a900473ffffffffffffffffffffffffffffffffffffffff1681565b600c60009054906101000a900473ffffffffffffffffffffffffffffffffffffffff1681565b600080600080600080600080600554600654600354600154600c60009054906101000a900473ffffffffffffffffffffffffffffffffffffffff1673ffffffffffffffffffffffffffffffffffffffff1663288fa5bf6001546040518263ffffffff1660e01b81526004016113199190611bbb565b602060405180830381865afa158015611336573d6000803e3d6000fd5b505050506040513d601f19601f8201168201806040525081019061135a9190611d12565b600760009054906101000a900460ff16600960009054906101000a900473ffffffffffffffffffffffffffffffffffffffff16600a60009054906101000a900473ffffffffffffffffffffffffffffffffffffffff16975097509750975097509750975097509091929394959697565b6113d261158a565b73ffffffffffffffffffffffffffffffffffffffff166113f061122f565b73ffffffffffffffffffffffffffffffffffffffff1614611446576040517f08c379a000000000000000000000000000000000000000000000000000000000815260040161143d90612122565b60405180910390fd5b600073ffffffffffffffffffffffffffffffffffffffff168173ffffffffffffffffffffffffffffffffffffffff16036114b5576040517f08c379a00000000000000000000000000000000000000000000000000000000081526004016114ac906121b4565b60405180910390fd5b6114be81611592565b50565b600081836114cf91906121d4565b905092915050565b600081836114e59190612245565b905092915050565b6001600760006101000a81548160ff0219169083151502179055506001547f2d9abaed896ece5f9f4f4484ce756b21c297e5aa6739114910fc097c750f27a5600760019054906101000a900473ffffffffffffffffffffffffffffffffffffffff16600860009054906101000a900473ffffffffffffffffffffffffffffffffffffffff16604051611580929190612276565b60405180910390a2565b600033905090565b60008060009054906101000a900473ffffffffffffffffffffffffffffffffffffffff169050816000806101000a81548173ffffffffffffffffffffffffffffffffffffffff021916908373ffffffffffffffffffffffffffffffffffffffff1602179055508173ffffffffffffffffffffffffffffffffffffffff168173ffffffffffffffffffffffffffffffffffffffff167f8be0079c531659141344cd1fd0a4f28419497f9722a3daafe3b4186f6b6457e060405160405180910390a35050565b6000604051905090565b600080fd5b600080fd5b600073ffffffffffffffffffffffffffffffffffffffff82169050919050565b60006116958261166a565b9050919050565b6116a58161168a565b81146116b057600080fd5b50565b6000813590506116c28161169c565b92915050565b6000819050919050565b6116db816116c8565b81146116e657600080fd5b50565b6000813590506116f8816116d2565b92915050565b600080fd5b600080fd5b6000601f19601f8301169050919050565b7f4e487b7100000000000000000000000000000000000000000000000000000000600052604160045260246000fd5b61175182611708565b810181811067ffffffffffffffff821117156117705761176f611719565b5b80604052505050565b6000611783611656565b905061178f8282611748565b919050565b600067ffffffffffffffff8211156117af576117ae611719565b5b6117b882611708565b9050602081019050919050565b82818337600083830152505050565b60006117e76117e284611794565b611779565b90508281526020810184848401111561180357611802611703565b5b61180e8482856117c5565b509392505050565b600082601f83011261182b5761182a6116fe565b5b813561183b8482602086016117d4565b91505092915050565b6000806000806080858703121561185e5761185d611660565b5b600061186c878288016116b3565b945050602061187d878288016116b3565b935050604061188e878288016116e9565b925050606085013567ffffffffffffffff8111156118af576118ae611665565b5b6118bb87828801611816565b91505092959194509250565b60007fffffffff0000000000000000000000000000000000000000000000000000000082169050919050565b6118fc816118c7565b82525050565b600060208201905061191760008301846118f3565b92915050565b6119268161168a565b82525050565b6000602082019050611941600083018461191d565b92915050565b6000819050919050565b600061196c6119676119628461166a565b611947565b61166a565b9050919050565b600061197e82611951565b9050919050565b600061199082611973565b9050919050565b6119a081611985565b82525050565b60006020820190506119bb6000830184611997565b92915050565b60006119cc82611973565b9050919050565b6119dc816119c1565b82525050565b60006020820190506119f760008301846119d3565b92915050565b611a06816116c8565b82525050565b60008115159050919050565b611a2181611a0c565b82525050565b600061010082019050611a3d600083018b6119fd565b611a4a602083018a6119fd565b611a5760408301896119fd565b611a6460608301886119fd565b611a71608083018761191d565b611a7e60a0830186611a18565b611a8b60c083018561191d565b611a9860e083018461191d565b9998505050505050505050565b600060208284031215611abb57611aba611660565b5b6000611ac9848285016116b3565b91505092915050565b600082825260208201905092915050565b7f6f6e6c792073656c6c6572206164647265737300000000000000000000000000600082015250565b6000611b19601383611ad2565b9150611b2482611ae3565b602082019050919050565b60006020820190508181036000830152611b4881611b0c565b9050919050565b7f73616c65206973206e6f742066696e69736865642e0000000000000000000000600082015250565b6000611b85601583611ad2565b9150611b9082611b4f565b602082019050919050565b60006020820190508181036000830152611bb481611b78565b9050919050565b6000602082019050611bd060008301846119fd565b92915050565b600081519050611be5816116d2565b92915050565b600060208284031215611c0157611c00611660565b5b6000611c0f84828501611bd6565b91505092915050565b7f4e487b7100000000000000000000000000000000000000000000000000000000600052601160045260246000fd5b6000611c52826116c8565b9150611c5d836116c8565b9250828203905081811115611c7557611c74611c18565b5b92915050565b6000604082019050611c90600083018561191d565b611c9d60208301846119fd565b9392505050565b611cad81611a0c565b8114611cb857600080fd5b50565b600081519050611cca81611ca4565b92915050565b600060208284031215611ce657611ce5611660565b5b6000611cf484828501611cbb565b91505092915050565b600081519050611d0c8161169c565b92915050565b600060208284031215611d2857611d27611660565b5b6000611d3684828501611cfd565b91505092915050565b7f73616c65206973206e6f742066696e6973686564000000000000000000000000600082015250565b6000611d75601483611ad2565b9150611d8082611d3f565b602082019050919050565b60006020820190508181036000830152611da481611d68565b9050919050565b7f6f6e6c792073746f726520616464726573730000000000000000000000000000600082015250565b6000611de1601283611ad2565b9150611dec82611dab565b602082019050919050565b60006020820190508181036000830152611e1081611dd4565b9050919050565b7f6e6661737420616c726561647920757365640000000000000000000000000000600082015250565b6000611e4d601283611ad2565b9150611e5882611e17565b602082019050919050565b60006020820190508181036000830152611e7c81611e40565b9050919050565b7f6275796572206973206e6f74206f776e65720000000000000000000000000000600082015250565b6000611eb9601283611ad2565b9150611ec482611e83565b602082019050919050565b60006020820190508181036000830152611ee881611eac565b9050919050565b6000606082019050611f04600083018661191d565b611f11602083018561191d565b611f1e60408301846119fd565b949350505050565b7f73616c65206973206e6f7420737461727465642e000000000000000000000000600082015250565b6000611f5c601483611ad2565b9150611f6782611f26565b602082019050919050565b60006020820190508181036000830152611f8b81611f4f565b9050919050565b7f73616c652069732066696e697368656400000000000000000000000000000000600082015250565b6000611fc8601083611ad2565b9150611fd382611f92565b602082019050919050565b60006020820190508181036000830152611ff781611fbb565b9050919050565b7f73656c6c6572206973206e6f74206f776e657200000000000000000000000000600082015250565b6000612034601383611ad2565b915061203f82611ffe565b602082019050919050565b6000602082019050818103600083015261206381612027565b9050919050565b7f62616c616e6365206973206e6f7420656e6f7567680000000000000000000000600082015250565b60006120a0601583611ad2565b91506120ab8261206a565b602082019050919050565b600060208201905081810360008301526120cf81612093565b9050919050565b7f4f776e61626c653a2063616c6c6572206973206e6f7420746865206f776e6572600082015250565b600061210c602083611ad2565b9150612117826120d6565b602082019050919050565b6000602082019050818103600083015261213b816120ff565b9050919050565b7f4f776e61626c653a206e6577206f776e657220697320746865207a65726f206160008201527f6464726573730000000000000000000000000000000000000000000000000000602082015250565b600061219e602683611ad2565b91506121a982612142565b604082019050919050565b600060208201905081810360008301526121cd81612191565b9050919050565b60006121df826116c8565b91506121ea836116c8565b92508282026121f8816116c8565b9150828204841483151761220f5761220e611c18565b5b5092915050565b7f4e487b7100000000000000000000000000000000000000000000000000000000600052601260045260246000fd5b6000612250826116c8565b915061225b836116c8565b92508261226b5761226a612216565b5b828204905092915050565b600060408201905061228b600083018561191d565b612298602083018461191d565b939250505056fea2646970667358221220a4acc5c0a3a31ef840c2d657c83bd273486e328cff3ae785512b68e51d975eaf64736f6c63430008130033",
  "immutableReferences": {},
  "source": "// SPDX-License-Identifier: MIT\r\npragma solidity ^0.8.4;\r\n\r\nimport \"./access/Ownable.sol\";\r\nimport \"./token/ERC20/ERC20.sol\";\r\nimport \"./token/ERC721/ERC721.sol\";\r\nimport \"./Nfast.sol\";\r\nimport \"./SaleFactory.sol\";\r\nimport \"./utils/math/SafeMath.sol\";\r\n\r\ncontract Sale is Ownable,IERC721Receiver {\r\n    using SafeMath for uint256;\r\n    //nft id\r\n    uint256 private nftId;\r\n    // \r\n    address private storeAddress;\r\n    // \r\n    uint256 private price;\r\n    //  0  1 \r\n    bool private isStore;\r\n    //  \r\n    uint256 private startDate;\r\n    //  \r\n    uint256 private endDate;\r\n    // \r\n    bool private isEnd;\r\n    // \r\n    address private sellerAddress;\r\n    // \r\n    address private buyerAddress;\r\n\r\n    address public currencyAddress;\r\n    //nfast \r\n    address public nftAddress;\r\n\r\n\r\n\r\n    // \r\n    IERC20 public erc20Contract;\r\n    Nfast public erc721Contract;\r\n\r\n    //todo event  \r\n    event Purchase(uint256 indexed _nftId, address _seller, address _buyer);\r\n    //todo event \r\n    event Withdraw(address indexed _to, uint256 _price);\r\n    //todo event \r\n    event Refund(uint256 indexed _nftId,address _to);\r\n\r\n\r\n    constructor (uint256 _nftId, uint256 _price, bool _isStore, uint256 _startDate, uint256 _endDate, address _currencyAddress, address _nftAddress, address _sellerAddress){\r\n        require(_price > 0, \"price error\");\r\n//        require(_endDate > block.timestamp,\"time error\");\r\n        nftId = _nftId;\r\n        price = _price;\r\n        sellerAddress = _sellerAddress;\r\n        startDate = _startDate;\r\n        endDate = _endDate;\r\n        currencyAddress = _currencyAddress;\r\n        nftAddress = _nftAddress;\r\n        isEnd = false;\r\n        erc20Contract = IERC20(_currencyAddress);\r\n        erc721Contract = Nfast(_nftAddress);\r\n        isStore=_isStore;\r\n    }\r\n\r\n\r\n    function purchase()\r\n    public\r\n    payable\r\n    onlyAfterStart onlyEndDate {\r\n        //  \r\n        //    \r\n        require(sellerAddress == erc721Contract.ownerOf(nftId), \"seller is not owner\");\r\n        //   \r\n        require(price <= erc20Contract.balanceOf(msg.sender), \"balance is not enough\");\r\n        //todo approve\r\n        // \r\n        erc20Contract.transferFrom(msg.sender, address(this), price);\r\n        //nft \r\n        erc721Contract.safeTransferFrom(sellerAddress, msg.sender, nftId);\r\n\r\n        buyerAddress = msg.sender;\r\n        end();\r\n    }\r\n\r\n    function refund()\r\n    public\r\n    payable\r\n    onlyStoreAddress onlyIsEnd {\r\n        // ,  \r\n        //  \r\n        require(erc721Contract.getIsUse(nftId) == false, \"nfast already used\");\r\n        //  \r\n        require(buyerAddress == erc721Contract.ownerOf(nftId), \"buyer is not owner\");\r\n        // todo    ...\r\n        erc721Contract.setIsUse(nftId);\r\n        //     \r\n        erc20Contract.transferFrom(msg.sender, buyerAddress, erc721Contract.getPrice(nftId));\r\n\r\n        emit Refund(nftId,buyerAddress);\r\n    }\r\n\r\n    function withdraw()\r\n    public\r\n    payable\r\n    onlySellerAddress onlyIsEnd  {\r\n        //   , \r\n        //       \r\n        uint256 nowPrice = price;\r\n        if (isStore == false) {\r\n            //     \r\n            uint256 subPrice = nowPrice.mul(erc721Contract.getCharge(nftId)).div(100);\r\n            nowPrice=price - subPrice;\r\n            //\r\n            erc20Contract.transfer(msg.sender, nowPrice);\r\n            //  \r\n            erc20Contract.transfer(erc721Contract.getStoreAddress(nftId),subPrice);\r\n        }\r\n        else {\r\n            //     ()\r\n            require(block.timestamp > endDate, \"sale is not finished\");\r\n            //  \r\n            // payable(msg.sender).transfer(address(this).balance);\r\n            erc20Contract.transfer(msg.sender, nowPrice);\r\n        }\r\n        emit Withdraw(msg.sender,nowPrice);\r\n    }\r\n\r\n    function getSaleInfo()\r\n    public\r\n    view\r\n    returns (uint256, uint256, uint256, uint256, address, bool, address, address)    {\r\n        return (startDate, endDate, price, nftId, erc721Contract.getStoreAddress(nftId), isEnd, currencyAddress, nftAddress);\r\n    }\r\n\r\n    // function balanceOf() public view returns (uint256) {\r\n    //     return currencyAddress.balanceOf(address(this));\r\n    // }\r\n\r\n    function end() private {\r\n        isEnd = true;\r\n        emit Purchase(nftId,sellerAddress,buyerAddress);\r\n    }\r\n\r\n    function onERC721Received (address operator, address from, uint256 tokenId, bytes memory data)\r\n    public\r\n    override\r\n    returns (bytes4) {\r\n        // do something with the transferred NFT\r\n        return this.onERC721Received.selector;\r\n    }\r\n\r\n    modifier onlyIsEnd() {\r\n        require(isEnd == true, \"sale is not finished.\");\r\n        _;\r\n    }\r\n    modifier onlyAfterStart() {\r\n        require(block.timestamp >= startDate, \"sale is not started.\");\r\n        _;\r\n    }\r\n    modifier onlyEndDate(){\r\n        require(block.timestamp < endDate, \"sale is finished\");\r\n        _;\r\n    }\r\n    modifier onlyStoreAddress(){\r\n        require(msg.sender == erc721Contract.getStoreAddress(nftId), \"only store address\");\r\n        _;\r\n    }\r\n    modifier onlySellerAddress(){\r\n        require(msg.sender == sellerAddress, \"only seller address\");\r\n        _;\r\n    }\r\n\r\n}\r\n",
  "sourcePath": "C:\\ssafy\\git\\S08P22A307\\smartContract\\contracts\\Sale.sol",
  "compiler": {
    "name": "solc",
    "version": "0.8.19+commit.7dd6d404.Emscripten.clang"
  },
  "schemaVersion": "3.4.12",
  "updatedAt": "2023-03-29T01:59:04.586Z",
  "devdoc": {
    "kind": "dev",
    "methods": {
      "onERC721Received(address,address,uint256,bytes)": {
        "details": "Whenever an {IERC721} `tokenId` token is transferred to this contract via {IERC721-safeTransferFrom} by `operator` from `from`, this function is called. It must return its Solidity selector to confirm the token transfer. If any other value is returned or the interface is not implemented by the recipient, the transfer will be reverted. The selector can be obtained in Solidity with `IERC721.onERC721Received.selector`."
      },
      "owner()": {
        "details": "Returns the address of the current owner."
      },
      "renounceOwnership()": {
        "details": "Leaves the contract without owner. It will not be possible to call `onlyOwner` functions anymore. Can only be called by the current owner. NOTE: Renouncing ownership will leave the contract without an owner, thereby removing any functionality that is only available to the owner."
      },
      "transferOwnership(address)": {
        "details": "Transfers ownership of the contract to a new account (`newOwner`). Can only be called by the current owner."
      }
    },
    "version": 1
  },
  "userdoc": {
    "kind": "user",
    "methods": {},
    "version": 1
  }
}